{
  "_format": "hh-sol-artifact-1",
  "contractName": "Christmasflakes",
  "sourceName": "contracts/Christmasflakes.sol",
  "abi": [
    {
      "inputs": [],
      "stateMutability": "nonpayable",
      "type": "constructor"
    },
    {
      "anonymous": false,
      "inputs": [
        {
          "indexed": true,
          "internalType": "address",
          "name": "owner",
          "type": "address"
        },
        {
          "indexed": true,
          "internalType": "address",
          "name": "approved",
          "type": "address"
        },
        {
          "indexed": true,
          "internalType": "uint256",
          "name": "tokenId",
          "type": "uint256"
        }
      ],
      "name": "Approval",
      "type": "event"
    },
    {
      "anonymous": false,
      "inputs": [
        {
          "indexed": true,
          "internalType": "address",
          "name": "owner",
          "type": "address"
        },
        {
          "indexed": true,
          "internalType": "address",
          "name": "operator",
          "type": "address"
        },
        {
          "indexed": false,
          "internalType": "bool",
          "name": "approved",
          "type": "bool"
        }
      ],
      "name": "ApprovalForAll",
      "type": "event"
    },
    {
      "anonymous": false,
      "inputs": [
        {
          "indexed": true,
          "internalType": "address",
          "name": "previousOwner",
          "type": "address"
        },
        {
          "indexed": true,
          "internalType": "address",
          "name": "newOwner",
          "type": "address"
        }
      ],
      "name": "OwnershipTransferred",
      "type": "event"
    },
    {
      "anonymous": false,
      "inputs": [
        {
          "indexed": false,
          "internalType": "uint256",
          "name": "tokenId",
          "type": "uint256"
        },
        {
          "components": [
            {
              "internalType": "address payable",
              "name": "account",
              "type": "address"
            },
            {
              "internalType": "uint96",
              "name": "value",
              "type": "uint96"
            }
          ],
          "indexed": false,
          "internalType": "struct LibPart.Part[]",
          "name": "royalties",
          "type": "tuple[]"
        }
      ],
      "name": "RoyaltiesSet",
      "type": "event"
    },
    {
      "anonymous": false,
      "inputs": [
        {
          "indexed": true,
          "internalType": "address",
          "name": "from",
          "type": "address"
        },
        {
          "indexed": true,
          "internalType": "address",
          "name": "to",
          "type": "address"
        },
        {
          "indexed": true,
          "internalType": "uint256",
          "name": "tokenId",
          "type": "uint256"
        }
      ],
      "name": "Transfer",
      "type": "event"
    },
    {
      "inputs": [
        {
          "internalType": "address",
          "name": "",
          "type": "address"
        }
      ],
      "name": "addressMintedBalance",
      "outputs": [
        {
          "internalType": "uint256",
          "name": "",
          "type": "uint256"
        }
      ],
      "stateMutability": "view",
      "type": "function"
    },
    {
      "inputs": [
        {
          "internalType": "address",
          "name": "to",
          "type": "address"
        },
        {
          "internalType": "uint256",
          "name": "tokenId",
          "type": "uint256"
        }
      ],
      "name": "approve",
      "outputs": [],
      "stateMutability": "nonpayable",
      "type": "function"
    },
    {
      "inputs": [],
      "name": "artist",
      "outputs": [
        {
          "internalType": "address",
          "name": "",
          "type": "address"
        }
      ],
      "stateMutability": "view",
      "type": "function"
    },
    {
      "inputs": [
        {
          "internalType": "address",
          "name": "owner",
          "type": "address"
        }
      ],
      "name": "balanceOf",
      "outputs": [
        {
          "internalType": "uint256",
          "name": "",
          "type": "uint256"
        }
      ],
      "stateMutability": "view",
      "type": "function"
    },
    {
      "inputs": [],
      "name": "createToken",
      "outputs": [
        {
          "internalType": "uint256",
          "name": "",
          "type": "uint256"
        }
      ],
      "stateMutability": "nonpayable",
      "type": "function"
    },
    {
      "inputs": [
        {
          "internalType": "uint256",
          "name": "tokenId",
          "type": "uint256"
        }
      ],
      "name": "getApproved",
      "outputs": [
        {
          "internalType": "address",
          "name": "",
          "type": "address"
        }
      ],
      "stateMutability": "view",
      "type": "function"
    },
    {
      "inputs": [
        {
          "internalType": "uint256",
          "name": "id",
          "type": "uint256"
        }
      ],
      "name": "getRaribleV2Royalties",
      "outputs": [
        {
          "components": [
            {
              "internalType": "address payable",
              "name": "account",
              "type": "address"
            },
            {
              "internalType": "uint96",
              "name": "value",
              "type": "uint96"
            }
          ],
          "internalType": "struct LibPart.Part[]",
          "name": "",
          "type": "tuple[]"
        }
      ],
      "stateMutability": "view",
      "type": "function"
    },
    {
      "inputs": [
        {
          "internalType": "address",
          "name": "owner",
          "type": "address"
        },
        {
          "internalType": "address",
          "name": "operator",
          "type": "address"
        }
      ],
      "name": "isApprovedForAll",
      "outputs": [
        {
          "internalType": "bool",
          "name": "",
          "type": "bool"
        }
      ],
      "stateMutability": "view",
      "type": "function"
    },
    {
      "inputs": [],
      "name": "maxMintAmount",
      "outputs": [
        {
          "internalType": "uint256",
          "name": "",
          "type": "uint256"
        }
      ],
      "stateMutability": "view",
      "type": "function"
    },
    {
      "inputs": [],
      "name": "maxSupply",
      "outputs": [
        {
          "internalType": "uint256",
          "name": "",
          "type": "uint256"
        }
      ],
      "stateMutability": "view",
      "type": "function"
    },
    {
      "inputs": [],
      "name": "mintCount",
      "outputs": [
        {
          "internalType": "uint256",
          "name": "",
          "type": "uint256"
        }
      ],
      "stateMutability": "view",
      "type": "function"
    },
    {
      "inputs": [],
      "name": "name",
      "outputs": [
        {
          "internalType": "string",
          "name": "",
          "type": "string"
        }
      ],
      "stateMutability": "view",
      "type": "function"
    },
    {
      "inputs": [],
      "name": "nftPerAddressLimit",
      "outputs": [
        {
          "internalType": "uint256",
          "name": "",
          "type": "uint256"
        }
      ],
      "stateMutability": "view",
      "type": "function"
    },
    {
      "inputs": [],
      "name": "owner",
      "outputs": [
        {
          "internalType": "address",
          "name": "",
          "type": "address"
        }
      ],
      "stateMutability": "view",
      "type": "function"
    },
    {
      "inputs": [
        {
          "internalType": "uint256",
          "name": "tokenId",
          "type": "uint256"
        }
      ],
      "name": "ownerOf",
      "outputs": [
        {
          "internalType": "address",
          "name": "",
          "type": "address"
        }
      ],
      "stateMutability": "view",
      "type": "function"
    },
    {
      "inputs": [],
      "name": "renounceOwnership",
      "outputs": [],
      "stateMutability": "nonpayable",
      "type": "function"
    },
    {
      "inputs": [
        {
          "internalType": "address",
          "name": "from",
          "type": "address"
        },
        {
          "internalType": "address",
          "name": "to",
          "type": "address"
        },
        {
          "internalType": "uint256",
          "name": "tokenId",
          "type": "uint256"
        }
      ],
      "name": "safeTransferFrom",
      "outputs": [],
      "stateMutability": "nonpayable",
      "type": "function"
    },
    {
      "inputs": [
        {
          "internalType": "address",
          "name": "from",
          "type": "address"
        },
        {
          "internalType": "address",
          "name": "to",
          "type": "address"
        },
        {
          "internalType": "uint256",
          "name": "tokenId",
          "type": "uint256"
        },
        {
          "internalType": "bytes",
          "name": "_data",
          "type": "bytes"
        }
      ],
      "name": "safeTransferFrom",
      "outputs": [],
      "stateMutability": "nonpayable",
      "type": "function"
    },
    {
      "inputs": [
        {
          "internalType": "address",
          "name": "operator",
          "type": "address"
        },
        {
          "internalType": "bool",
          "name": "approved",
          "type": "bool"
        }
      ],
      "name": "setApprovalForAll",
      "outputs": [],
      "stateMutability": "nonpayable",
      "type": "function"
    },
    {
      "inputs": [
        {
          "internalType": "bytes4",
          "name": "interfaceId",
          "type": "bytes4"
        }
      ],
      "name": "supportsInterface",
      "outputs": [
        {
          "internalType": "bool",
          "name": "",
          "type": "bool"
        }
      ],
      "stateMutability": "view",
      "type": "function"
    },
    {
      "inputs": [],
      "name": "symbol",
      "outputs": [
        {
          "internalType": "string",
          "name": "",
          "type": "string"
        }
      ],
      "stateMutability": "view",
      "type": "function"
    },
    {
      "inputs": [
        {
          "internalType": "uint256",
          "name": "tokenId",
          "type": "uint256"
        }
      ],
      "name": "tokenURI",
      "outputs": [
        {
          "internalType": "string",
          "name": "",
          "type": "string"
        }
      ],
      "stateMutability": "view",
      "type": "function"
    },
    {
      "inputs": [
        {
          "internalType": "address",
          "name": "from",
          "type": "address"
        },
        {
          "internalType": "address",
          "name": "to",
          "type": "address"
        },
        {
          "internalType": "uint256",
          "name": "tokenId",
          "type": "uint256"
        }
      ],
      "name": "transferFrom",
      "outputs": [],
      "stateMutability": "nonpayable",
      "type": "function"
    },
    {
      "inputs": [
        {
          "internalType": "address",
          "name": "newOwner",
          "type": "address"
        }
      ],
      "name": "transferOwnership",
      "outputs": [],
      "stateMutability": "nonpayable",
      "type": "function"
    }
  ],
  "bytecode": "0x6080604052610457600b556001600c556002600d55604051806060016040528060368152602001620042cb60369139600f90805190602001906200004592919062000277565b506040518060400160405280600581526020017f2e6a736f6e000000000000000000000000000000000000000000000000000000815250601090805190602001906200009392919062000277565b50348015620000a157600080fd5b506040518060400160405280601081526020017f4368726973746d617320466c616b6573000000000000000000000000000000008152506040518060400160405280600281526020017f434600000000000000000000000000000000000000000000000000000000000081525081600090805190602001906200012692919062000277565b5080600190805190602001906200013f92919062000277565b5050506200016262000156620001a960201b60201c565b620001b160201b60201c565b33600960006101000a81548173ffffffffffffffffffffffffffffffffffffffff021916908373ffffffffffffffffffffffffffffffffffffffff1602179055506200038c565b600033905090565b6000600760009054906101000a900473ffffffffffffffffffffffffffffffffffffffff16905081600760006101000a81548173ffffffffffffffffffffffffffffffffffffffff021916908373ffffffffffffffffffffffffffffffffffffffff1602179055508173ffffffffffffffffffffffffffffffffffffffff168173ffffffffffffffffffffffffffffffffffffffff167f8be0079c531659141344cd1fd0a4f28419497f9722a3daafe3b4186f6b6457e060405160405180910390a35050565b828054620002859062000327565b90600052602060002090601f016020900481019282620002a95760008555620002f5565b82601f10620002c457805160ff1916838001178555620002f5565b82800160010185558215620002f5579182015b82811115620002f4578251825591602001919060010190620002d7565b5b50905062000304919062000308565b5090565b5b808211156200032357600081600090555060010162000309565b5090565b600060028204905060018216806200034057607f821691505b602082108114156200035757620003566200035d565b5b50919050565b7f4e487b7100000000000000000000000000000000000000000000000000000000600052602260045260246000fd5b613f2f806200039c6000396000f3fe608060405234801561001057600080fd5b50600436106101585760003560e01c80638da5cb5b116100c3578063ba7d2c761161007c578063ba7d2c76146103b5578063c87b56dd146103d3578063cad96cca14610403578063d5abeb0114610433578063e985e9c514610451578063f2fde38b1461048157610158565b80638da5cb5b1461030557806395d89b41146103235780639659867e146103415780639cbf9e361461035f578063a22cb4651461037d578063b88d4fde1461039957610158565b806323b872dd1161011557806323b872dd1461024557806342842e0e1461026157806343bc16121461027d5780636352211e1461029b57806370a08231146102cb578063715018a6146102fb57610158565b806301ffc9a71461015d57806306fdde031461018d578063081812fc146101ab578063095ea7b3146101db57806318cae269146101f7578063239c70ae14610227575b600080fd5b610177600480360381019061017291906129cc565b61049d565b604051610184919061305c565b60405180910390f35b610195610506565b6040516101a29190613077565b60405180910390f35b6101c560048036038101906101c09190612a1e565b610598565b6040516101d29190612fd3565b60405180910390f35b6101f560048036038101906101f09190612990565b61061d565b005b610211600480360381019061020c9190612825565b610735565b60405161021e9190613379565b60405180910390f35b61022f61074d565b60405161023c9190613379565b60405180910390f35b61025f600480360381019061025a919061288a565b610753565b005b61027b6004803603810190610276919061288a565b6107b3565b005b6102856107d3565b6040516102929190612fd3565b60405180910390f35b6102b560048036038101906102b09190612a1e565b6107f9565b6040516102c29190612fd3565b60405180910390f35b6102e560048036038101906102e09190612825565b6108ab565b6040516102f29190613379565b60405180910390f35b610303610963565b005b61030d6109eb565b60405161031a9190612fd3565b60405180910390f35b61032b610a15565b6040516103389190613077565b60405180910390f35b610349610aa7565b6040516103569190613379565b60405180910390f35b610367610ab8565b6040516103749190613379565b60405180910390f35b61039760048036038101906103929190612954565b610c6e565b005b6103b360048036038101906103ae91906128d9565b610def565b005b6103bd610e51565b6040516103ca9190613379565b60405180910390f35b6103ed60048036038101906103e89190612a1e565b610e57565b6040516103fa9190613077565b60405180910390f35b61041d60048036038101906104189190612a1e565b610fa9565b60405161042a919061303a565b60405180910390f35b61043b6110ab565b6040516104489190613379565b60405180910390f35b61046b6004803603810190610466919061284e565b6110b1565b604051610478919061305c565b60405180910390f35b61049b60048036038101906104969190612825565b611145565b005b600063cad96cca60e01b7bffffffffffffffffffffffffffffffffffffffffffffffffffffffff1916827bffffffffffffffffffffffffffffffffffffffffffffffffffffffff191614156104f55760019050610501565b6104fe8261123d565b90505b919050565b606060008054610515906136e4565b80601f0160208091040260200160405190810160405280929190818152602001828054610541906136e4565b801561058e5780601f106105635761010080835404028352916020019161058e565b820191906000526020600020905b81548152906001019060200180831161057157829003601f168201915b5050505050905090565b60006105a38261131f565b6105e2576040517f08c379a00000000000000000000000000000000000000000000000000000000081526004016105d990613279565b60405180910390fd5b6004600083815260200190815260200160002060009054906101000a900473ffffffffffffffffffffffffffffffffffffffff169050919050565b6000610628826107f9565b90508073ffffffffffffffffffffffffffffffffffffffff168373ffffffffffffffffffffffffffffffffffffffff161415610699576040517f08c379a0000000000000000000000000000000000000000000000000000000008152600401610690906132f9565b60405180910390fd5b8073ffffffffffffffffffffffffffffffffffffffff166106b861138b565b73ffffffffffffffffffffffffffffffffffffffff1614806106e757506106e6816106e161138b565b6110b1565b5b610726576040517f08c379a000000000000000000000000000000000000000000000000000000000815260040161071d90613199565b60405180910390fd5b6107308383611393565b505050565b600e6020528060005260406000206000915090505481565b600c5481565b61076461075e61138b565b8261144c565b6107a3576040517f08c379a000000000000000000000000000000000000000000000000000000000815260040161079a90613319565b60405180910390fd5b6107ae83838361152a565b505050565b6107ce83838360405180602001604052806000815250610def565b505050565b600960009054906101000a900473ffffffffffffffffffffffffffffffffffffffff1681565b6000806002600084815260200190815260200160002060009054906101000a900473ffffffffffffffffffffffffffffffffffffffff169050600073ffffffffffffffffffffffffffffffffffffffff168173ffffffffffffffffffffffffffffffffffffffff1614156108a2576040517f08c379a0000000000000000000000000000000000000000000000000000000008152600401610899906131d9565b60405180910390fd5b80915050919050565b60008073ffffffffffffffffffffffffffffffffffffffff168273ffffffffffffffffffffffffffffffffffffffff16141561091c576040517f08c379a0000000000000000000000000000000000000000000000000000000008152600401610913906131b9565b60405180910390fd5b600360008373ffffffffffffffffffffffffffffffffffffffff1673ffffffffffffffffffffffffffffffffffffffff168152602001908152602001600020549050919050565b61096b61138b565b73ffffffffffffffffffffffffffffffffffffffff166109896109eb565b73ffffffffffffffffffffffffffffffffffffffff16146109df576040517f08c379a00000000000000000000000000000000000000000000000000000000081526004016109d690613299565b60405180910390fd5b6109e96000611786565b565b6000600760009054906101000a900473ffffffffffffffffffffffffffffffffffffffff16905090565b606060018054610a24906136e4565b80601f0160208091040260200160405190810160405280929190818152602001828054610a50906136e4565b8015610a9d5780601f10610a7257610100808354040283529160200191610a9d565b820191906000526020600020905b815481529060010190602001808311610a8057829003601f168201915b5050505050905090565b6000610ab3600a61184c565b905090565b600080600e60003373ffffffffffffffffffffffffffffffffffffffff1673ffffffffffffffffffffffffffffffffffffffff168152602001908152602001600020549050600d54600182610b0d91906134ab565b1115610b4e576040517f08c379a0000000000000000000000000000000000000000000000000000000008152600401610b45906130f9565b60405180910390fd5b600b54610b5b600a61184c565b6001610b6791906134ab565b1115610ba8576040517f08c379a0000000000000000000000000000000000000000000000000000000008152600401610b9f90613219565b60405180910390fd5b610bb2600a61185a565b6000610bbe600a61184c565b90506000610bcb82611870565b9050600e60003373ffffffffffffffffffffffffffffffffffffffff1673ffffffffffffffffffffffffffffffffffffffff1681526020019081526020016000206000815480929190610c1d90613747565b9190505550610c2c33836118b3565b610c368282611a81565b610c6582600960009054906101000a900473ffffffffffffffffffffffffffffffffffffffff166105dc611af5565b81935050505090565b610c7661138b565b73ffffffffffffffffffffffffffffffffffffffff168273ffffffffffffffffffffffffffffffffffffffff161415610ce4576040517f08c379a0000000000000000000000000000000000000000000000000000000008152600401610cdb90613139565b60405180910390fd5b8060056000610cf161138b565b73ffffffffffffffffffffffffffffffffffffffff1673ffffffffffffffffffffffffffffffffffffffff16815260200190815260200160002060008473ffffffffffffffffffffffffffffffffffffffff1673ffffffffffffffffffffffffffffffffffffffff16815260200190815260200160002060006101000a81548160ff0219169083151502179055508173ffffffffffffffffffffffffffffffffffffffff16610d9e61138b565b73ffffffffffffffffffffffffffffffffffffffff167f17307eab39ab6107e8899845ad3d59bd9653f200f220920489ca2b5937696c3183604051610de3919061305c565b60405180910390a35050565b610e00610dfa61138b565b8361144c565b610e3f576040517f08c379a0000000000000000000000000000000000000000000000000000000008152600401610e3690613319565b60405180910390fd5b610e4b84848484611c66565b50505050565b600d5481565b6060610e628261131f565b610ea1576040517f08c379a0000000000000000000000000000000000000000000000000000000008152600401610e9890613259565b60405180910390fd5b6000600660008481526020019081526020016000208054610ec1906136e4565b80601f0160208091040260200160405190810160405280929190818152602001828054610eed906136e4565b8015610f3a5780601f10610f0f57610100808354040283529160200191610f3a565b820191906000526020600020905b815481529060010190602001808311610f1d57829003601f168201915b505050505090506000610f4b611cc2565b9050600081511415610f61578192505050610fa4565b600082511115610f96578082604051602001610f7e929190612f7e565b60405160208183030381529060405292505050610fa4565b610f9f84611cd9565b925050505b919050565b606060086000838152602001908152602001600020805480602002602001604051908101604052809291908181526020016000905b828210156110a0578382906000526020600020016040518060400160405290816000820160009054906101000a900473ffffffffffffffffffffffffffffffffffffffff1673ffffffffffffffffffffffffffffffffffffffff1673ffffffffffffffffffffffffffffffffffffffff1681526020016000820160149054906101000a90046bffffffffffffffffffffffff166bffffffffffffffffffffffff166bffffffffffffffffffffffff168152505081526020019060010190610fde565b505050509050919050565b600b5481565b6000600560008473ffffffffffffffffffffffffffffffffffffffff1673ffffffffffffffffffffffffffffffffffffffff16815260200190815260200160002060008373ffffffffffffffffffffffffffffffffffffffff1673ffffffffffffffffffffffffffffffffffffffff16815260200190815260200160002060009054906101000a900460ff16905092915050565b61114d61138b565b73ffffffffffffffffffffffffffffffffffffffff1661116b6109eb565b73ffffffffffffffffffffffffffffffffffffffff16146111c1576040517f08c379a00000000000000000000000000000000000000000000000000000000081526004016111b890613299565b60405180910390fd5b600073ffffffffffffffffffffffffffffffffffffffff168173ffffffffffffffffffffffffffffffffffffffff161415611231576040517f08c379a0000000000000000000000000000000000000000000000000000000008152600401611228906130b9565b60405180910390fd5b61123a81611786565b50565b60007f80ac58cd000000000000000000000000000000000000000000000000000000007bffffffffffffffffffffffffffffffffffffffffffffffffffffffff1916827bffffffffffffffffffffffffffffffffffffffffffffffffffffffff1916148061130857507f5b5e139f000000000000000000000000000000000000000000000000000000007bffffffffffffffffffffffffffffffffffffffffffffffffffffffff1916827bffffffffffffffffffffffffffffffffffffffffffffffffffffffff1916145b80611318575061131782611d80565b5b9050919050565b60008073ffffffffffffffffffffffffffffffffffffffff166002600084815260200190815260200160002060009054906101000a900473ffffffffffffffffffffffffffffffffffffffff1673ffffffffffffffffffffffffffffffffffffffff1614159050919050565b600033905090565b816004600083815260200190815260200160002060006101000a81548173ffffffffffffffffffffffffffffffffffffffff021916908373ffffffffffffffffffffffffffffffffffffffff160217905550808273ffffffffffffffffffffffffffffffffffffffff16611406836107f9565b73ffffffffffffffffffffffffffffffffffffffff167f8c5be1e5ebec7d5bd14f71427d1e84f3dd0314c0f7b2291e5b200ac8c7c3b92560405160405180910390a45050565b60006114578261131f565b611496576040517f08c379a000000000000000000000000000000000000000000000000000000000815260040161148d90613159565b60405180910390fd5b60006114a1836107f9565b90508073ffffffffffffffffffffffffffffffffffffffff168473ffffffffffffffffffffffffffffffffffffffff16148061151057508373ffffffffffffffffffffffffffffffffffffffff166114f884610598565b73ffffffffffffffffffffffffffffffffffffffff16145b80611521575061152081856110b1565b5b91505092915050565b8273ffffffffffffffffffffffffffffffffffffffff1661154a826107f9565b73ffffffffffffffffffffffffffffffffffffffff16146115a0576040517f08c379a0000000000000000000000000000000000000000000000000000000008152600401611597906132b9565b60405180910390fd5b600073ffffffffffffffffffffffffffffffffffffffff168273ffffffffffffffffffffffffffffffffffffffff161415611610576040517f08c379a000000000000000000000000000000000000000000000000000000000815260040161160790613119565b60405180910390fd5b61161b838383611dea565b611626600082611393565b6001600360008573ffffffffffffffffffffffffffffffffffffffff1673ffffffffffffffffffffffffffffffffffffffff168152602001908152602001600020600082825461167691906135c3565b925050819055506001600360008473ffffffffffffffffffffffffffffffffffffffff1673ffffffffffffffffffffffffffffffffffffffff16815260200190815260200160002060008282546116cd91906134ab565b92505081905550816002600083815260200190815260200160002060006101000a81548173ffffffffffffffffffffffffffffffffffffffff021916908373ffffffffffffffffffffffffffffffffffffffff160217905550808273ffffffffffffffffffffffffffffffffffffffff168473ffffffffffffffffffffffffffffffffffffffff167fddf252ad1be2c89b69c2b068fc378daa952ba7f163c4a11628f55a4df523b3ef60405160405180910390a4505050565b6000600760009054906101000a900473ffffffffffffffffffffffffffffffffffffffff16905081600760006101000a81548173ffffffffffffffffffffffffffffffffffffffff021916908373ffffffffffffffffffffffffffffffffffffffff1602179055508173ffffffffffffffffffffffffffffffffffffffff168173ffffffffffffffffffffffffffffffffffffffff167f8be0079c531659141344cd1fd0a4f28419497f9722a3daafe3b4186f6b6457e060405160405180910390a35050565b600081600001549050919050565b6001816000016000828254019250508190555050565b6060600061187d83611def565b90506000600f82601060405160200161189893929190612fa2565b60405160208183030381529060405290508092505050919050565b600073ffffffffffffffffffffffffffffffffffffffff168273ffffffffffffffffffffffffffffffffffffffff161415611923576040517f08c379a000000000000000000000000000000000000000000000000000000000815260040161191a90613239565b60405180910390fd5b61192c8161131f565b1561196c576040517f08c379a0000000000000000000000000000000000000000000000000000000008152600401611963906130d9565b60405180910390fd5b61197860008383611dea565b6001600360008473ffffffffffffffffffffffffffffffffffffffff1673ffffffffffffffffffffffffffffffffffffffff16815260200190815260200160002060008282546119c891906134ab565b92505081905550816002600083815260200190815260200160002060006101000a81548173ffffffffffffffffffffffffffffffffffffffff021916908373ffffffffffffffffffffffffffffffffffffffff160217905550808273ffffffffffffffffffffffffffffffffffffffff16600073ffffffffffffffffffffffffffffffffffffffff167fddf252ad1be2c89b69c2b068fc378daa952ba7f163c4a11628f55a4df523b3ef60405160405180910390a45050565b611a8a8261131f565b611ac9576040517f08c379a0000000000000000000000000000000000000000000000000000000008152600401611ac0906131f9565b60405180910390fd5b80600660008481526020019081526020016000209080519060200190611af0929190612673565b505050565b6000600167ffffffffffffffff811115611b38577f4e487b7100000000000000000000000000000000000000000000000000000000600052604160045260246000fd5b604051908082528060200260200182016040528015611b7157816020015b611b5e6126f9565b815260200190600190039081611b565790505b5090508181600081518110611baf577f4e487b7100000000000000000000000000000000000000000000000000000000600052603260045260246000fd5b6020026020010151602001906bffffffffffffffffffffffff1690816bffffffffffffffffffffffff16815250508281600081518110611c18577f4e487b7100000000000000000000000000000000000000000000000000000000600052603260045260246000fd5b60200260200101516000019073ffffffffffffffffffffffffffffffffffffffff16908173ffffffffffffffffffffffffffffffffffffffff1681525050611c608482611fc4565b50505050565b611c7184848461152a565b611c7d848484846122df565b611cbc576040517f08c379a0000000000000000000000000000000000000000000000000000000008152600401611cb390613099565b60405180910390fd5b50505050565b606060405180602001604052806000815250905090565b6060611ce48261131f565b611d23576040517f08c379a0000000000000000000000000000000000000000000000000000000008152600401611d1a906132d9565b60405180910390fd5b6000611d2d611cc2565b90506000815111611d4d5760405180602001604052806000815250611d78565b80611d5784612476565b604051602001611d68929190612f7e565b6040516020818303038152906040525b915050919050565b60007f01ffc9a7000000000000000000000000000000000000000000000000000000007bffffffffffffffffffffffffffffffffffffffffffffffffffffffff1916827bffffffffffffffffffffffffffffffffffffffffffffffffffffffff1916149050919050565b505050565b60606000821415611e37576040518060400160405280600181526020017f30000000000000000000000000000000000000000000000000000000000000008152509050611fbf565b600082905060005b60008214611e69578080611e5290613747565b915050600a82611e629190613538565b9150611e3f565b60008167ffffffffffffffff811115611eab577f4e487b7100000000000000000000000000000000000000000000000000000000600052604160045260246000fd5b6040519080825280601f01601f191660200182016040528015611edd5781602001600182028036833780820191505090505b50905060008290505b60008614611fb757600181611efb91906135c3565b90506000600a8088611f0d9190613538565b611f179190613569565b87611f2291906135c3565b6030611f2e9190613501565b905060008160f81b905080848481518110611f72577f4e487b7100000000000000000000000000000000000000000000000000000000600052603260045260246000fd5b60200101907effffffffffffffffffffffffffffffffffffffffffffffffffffffffffffff1916908160001a905350600a88611fae9190613538565b97505050611ee6565b819450505050505b919050565b600080600090505b825181101561228b57600073ffffffffffffffffffffffffffffffffffffffff16838281518110612026577f4e487b7100000000000000000000000000000000000000000000000000000000600052603260045260246000fd5b60200260200101516000015173ffffffffffffffffffffffffffffffffffffffff161415612089576040517f08c379a000000000000000000000000000000000000000000000000000000000815260040161208090613359565b60405180910390fd5b60008382815181106120c4577f4e487b7100000000000000000000000000000000000000000000000000000000600052603260045260246000fd5b6020026020010151602001516bffffffffffffffffffffffff16141561211f576040517f08c379a000000000000000000000000000000000000000000000000000000000815260040161211690613179565b60405180910390fd5b828181518110612158577f4e487b7100000000000000000000000000000000000000000000000000000000600052603260045260246000fd5b6020026020010151602001516bffffffffffffffffffffffff168261217d91906134ab565b9150600860008581526020019081526020016000208382815181106121cb577f4e487b7100000000000000000000000000000000000000000000000000000000600052603260045260246000fd5b60200260200101519080600181540180825580915050600190039060005260206000200160009091909190915060008201518160000160006101000a81548173ffffffffffffffffffffffffffffffffffffffff021916908373ffffffffffffffffffffffffffffffffffffffff16021790555060208201518160000160146101000a8154816bffffffffffffffffffffffff02191690836bffffffffffffffffffffffff1602179055505050808061228390613747565b915050611fcc565b5061271081106122d0576040517f08c379a00000000000000000000000000000000000000000000000000000000081526004016122c790613339565b60405180910390fd5b6122da8383612623565b505050565b60006123008473ffffffffffffffffffffffffffffffffffffffff16612660565b15612469578373ffffffffffffffffffffffffffffffffffffffff1663150b7a0261232961138b565b8786866040518563ffffffff1660e01b815260040161234b9493929190612fee565b602060405180830381600087803b15801561236557600080fd5b505af192505050801561239657506040513d601f19601f8201168201806040525081019061239391906129f5565b60015b612419573d80600081146123c6576040519150601f19603f3d011682016040523d82523d6000602084013e6123cb565b606091505b50600081511415612411576040517f08c379a000000000000000000000000000000000000000000000000000000000815260040161240890613099565b60405180910390fd5b805181602001fd5b63150b7a0260e01b7bffffffffffffffffffffffffffffffffffffffffffffffffffffffff1916817bffffffffffffffffffffffffffffffffffffffffffffffffffffffff19161491505061246e565b600190505b949350505050565b606060008214156124be576040518060400160405280600181526020017f3000000000000000000000000000000000000000000000000000000000000000815250905061261e565b600082905060005b600082146124f05780806124d990613747565b915050600a826124e99190613538565b91506124c6565b60008167ffffffffffffffff811115612532577f4e487b7100000000000000000000000000000000000000000000000000000000600052604160045260246000fd5b6040519080825280601f01601f1916602001820160405280156125645781602001600182028036833780820191505090505b5090505b600085146126175760018261257d91906135c3565b9150600a8561258c9190613790565b603061259891906134ab565b60f81b8183815181106125d4577f4e487b7100000000000000000000000000000000000000000000000000000000600052603260045260246000fd5b60200101907effffffffffffffffffffffffffffffffffffffffffffffffffffffffffffff1916908160001a905350600a856126109190613538565b9450612568565b8093505050505b919050565b7f3fa96d7b6bcbfe71ef171666d84db3cf52fa2d1c8afdb1cc8e486177f208b7df8282604051612654929190613394565b60405180910390a15050565b600080823b905060008111915050919050565b82805461267f906136e4565b90600052602060002090601f0160209004810192826126a157600085556126e8565b82601f106126ba57805160ff19168380011785556126e8565b828001600101855582156126e8579182015b828111156126e75782518255916020019190600101906126cc565b5b5090506126f59190612737565b5090565b6040518060400160405280600073ffffffffffffffffffffffffffffffffffffffff16815260200160006bffffffffffffffffffffffff1681525090565b5b80821115612750576000816000905550600101612738565b5090565b6000612767612762846133e9565b6133c4565b90508281526020810184848401111561277f57600080fd5b61278a8482856136a2565b509392505050565b6000813590506127a181613e9d565b92915050565b6000813590506127b681613eb4565b92915050565b6000813590506127cb81613ecb565b92915050565b6000815190506127e081613ecb565b92915050565b600082601f8301126127f757600080fd5b8135612807848260208601612754565b91505092915050565b60008135905061281f81613ee2565b92915050565b60006020828403121561283757600080fd5b600061284584828501612792565b91505092915050565b6000806040838503121561286157600080fd5b600061286f85828601612792565b925050602061288085828601612792565b9150509250929050565b60008060006060848603121561289f57600080fd5b60006128ad86828701612792565b93505060206128be86828701612792565b92505060406128cf86828701612810565b9150509250925092565b600080600080608085870312156128ef57600080fd5b60006128fd87828801612792565b945050602061290e87828801612792565b935050604061291f87828801612810565b925050606085013567ffffffffffffffff81111561293c57600080fd5b612948878288016127e6565b91505092959194509250565b6000806040838503121561296757600080fd5b600061297585828601612792565b9250506020612986858286016127a7565b9150509250929050565b600080604083850312156129a357600080fd5b60006129b185828601612792565b92505060206129c285828601612810565b9150509250929050565b6000602082840312156129de57600080fd5b60006129ec848285016127bc565b91505092915050565b600060208284031215612a0757600080fd5b6000612a15848285016127d1565b91505092915050565b600060208284031215612a3057600080fd5b6000612a3e84828501612810565b91505092915050565b6000612a538383612f31565b60408301905092915050565b612a6881613609565b82525050565b612a77816135f7565b82525050565b6000612a888261343f565b612a92818561346d565b9350612a9d8361341a565b8060005b83811015612ace578151612ab58882612a47565b9750612ac083613460565b925050600181019050612aa1565b5085935050505092915050565b612ae48161361b565b82525050565b6000612af58261344a565b612aff818561347e565b9350612b0f8185602086016136b1565b612b188161387d565b840191505092915050565b6000612b2e82613455565b612b38818561348f565b9350612b488185602086016136b1565b612b518161387d565b840191505092915050565b6000612b6782613455565b612b7181856134a0565b9350612b818185602086016136b1565b80840191505092915050565b60008154612b9a816136e4565b612ba481866134a0565b94506001821660008114612bbf5760018114612bd057612c03565b60ff19831686528186019350612c03565b612bd98561342a565b60005b83811015612bfb57815481890152600182019150602081019050612bdc565b838801955050505b50505092915050565b6000612c1960328361348f565b9150612c248261388e565b604082019050919050565b6000612c3c60268361348f565b9150612c47826138dd565b604082019050919050565b6000612c5f601c8361348f565b9150612c6a8261392c565b602082019050919050565b6000612c82601c8361348f565b9150612c8d82613955565b602082019050919050565b6000612ca560248361348f565b9150612cb08261397e565b604082019050919050565b6000612cc860198361348f565b9150612cd3826139cd565b602082019050919050565b6000612ceb602c8361348f565b9150612cf6826139f6565b604082019050919050565b6000612d0e60208361348f565b9150612d1982613a45565b602082019050919050565b6000612d3160388361348f565b9150612d3c82613a6e565b604082019050919050565b6000612d54602a8361348f565b9150612d5f82613abd565b604082019050919050565b6000612d7760298361348f565b9150612d8282613b0c565b604082019050919050565b6000612d9a602e8361348f565b9150612da582613b5b565b604082019050919050565b6000612dbd602e8361348f565b9150612dc882613baa565b604082019050919050565b6000612de060208361348f565b9150612deb82613bf9565b602082019050919050565b6000612e0360318361348f565b9150612e0e82613c22565b604082019050919050565b6000612e26602c8361348f565b9150612e3182613c71565b604082019050919050565b6000612e4960208361348f565b9150612e5482613cc0565b602082019050919050565b6000612e6c60298361348f565b9150612e7782613ce9565b604082019050919050565b6000612e8f602f8361348f565b9150612e9a82613d38565b604082019050919050565b6000612eb260218361348f565b9150612ebd82613d87565b604082019050919050565b6000612ed560318361348f565b9150612ee082613dd6565b604082019050919050565b6000612ef860258361348f565b9150612f0382613e25565b604082019050919050565b6000612f1b601b8361348f565b9150612f2682613e74565b602082019050919050565b604082016000820151612f476000850182612a5f565b506020820151612f5a6020850182612f6f565b50505050565b612f6981613673565b82525050565b612f788161368a565b82525050565b6000612f8a8285612b5c565b9150612f968284612b5c565b91508190509392505050565b6000612fae8286612b8d565b9150612fba8285612b5c565b9150612fc68284612b8d565b9150819050949350505050565b6000602082019050612fe86000830184612a6e565b92915050565b60006080820190506130036000830187612a6e565b6130106020830186612a6e565b61301d6040830185612f60565b818103606083015261302f8184612aea565b905095945050505050565b600060208201905081810360008301526130548184612a7d565b905092915050565b60006020820190506130716000830184612adb565b92915050565b600060208201905081810360008301526130918184612b23565b905092915050565b600060208201905081810360008301526130b281612c0c565b9050919050565b600060208201905081810360008301526130d281612c2f565b9050919050565b600060208201905081810360008301526130f281612c52565b9050919050565b6000602082019050818103600083015261311281612c75565b9050919050565b6000602082019050818103600083015261313281612c98565b9050919050565b6000602082019050818103600083015261315281612cbb565b9050919050565b6000602082019050818103600083015261317281612cde565b9050919050565b6000602082019050818103600083015261319281612d01565b9050919050565b600060208201905081810360008301526131b281612d24565b9050919050565b600060208201905081810360008301526131d281612d47565b9050919050565b600060208201905081810360008301526131f281612d6a565b9050919050565b6000602082019050818103600083015261321281612d8d565b9050919050565b6000602082019050818103600083015261323281612db0565b9050919050565b6000602082019050818103600083015261325281612dd3565b9050919050565b6000602082019050818103600083015261327281612df6565b9050919050565b6000602082019050818103600083015261329281612e19565b9050919050565b600060208201905081810360008301526132b281612e3c565b9050919050565b600060208201905081810360008301526132d281612e5f565b9050919050565b600060208201905081810360008301526132f281612e82565b9050919050565b6000602082019050818103600083015261331281612ea5565b9050919050565b6000602082019050818103600083015261333281612ec8565b9050919050565b6000602082019050818103600083015261335281612eeb565b9050919050565b6000602082019050818103600083015261337281612f0e565b9050919050565b600060208201905061338e6000830184612f60565b92915050565b60006040820190506133a96000830185612f60565b81810360208301526133bb8184612a7d565b90509392505050565b60006133ce6133df565b90506133da8282613716565b919050565b6000604051905090565b600067ffffffffffffffff8211156134045761340361384e565b5b61340d8261387d565b9050602081019050919050565b6000819050602082019050919050565b60008190508160005260206000209050919050565b600081519050919050565b600081519050919050565b600081519050919050565b6000602082019050919050565b600082825260208201905092915050565b600082825260208201905092915050565b600082825260208201905092915050565b600081905092915050565b60006134b682613673565b91506134c183613673565b9250827fffffffffffffffffffffffffffffffffffffffffffffffffffffffffffffffff038211156134f6576134f56137c1565b5b828201905092915050565b600061350c8261367d565b91506135178361367d565b92508260ff0382111561352d5761352c6137c1565b5b828201905092915050565b600061354382613673565b915061354e83613673565b92508261355e5761355d6137f0565b5b828204905092915050565b600061357482613673565b915061357f83613673565b9250817fffffffffffffffffffffffffffffffffffffffffffffffffffffffffffffffff04831182151516156135b8576135b76137c1565b5b828202905092915050565b60006135ce82613673565b91506135d983613673565b9250828210156135ec576135eb6137c1565b5b828203905092915050565b600061360282613653565b9050919050565b600061361482613653565b9050919050565b60008115159050919050565b60007fffffffff0000000000000000000000000000000000000000000000000000000082169050919050565b600073ffffffffffffffffffffffffffffffffffffffff82169050919050565b6000819050919050565b600060ff82169050919050565b60006bffffffffffffffffffffffff82169050919050565b82818337600083830152505050565b60005b838110156136cf5780820151818401526020810190506136b4565b838111156136de576000848401525b50505050565b600060028204905060018216806136fc57607f821691505b602082108114156137105761370f61381f565b5b50919050565b61371f8261387d565b810181811067ffffffffffffffff8211171561373e5761373d61384e565b5b80604052505050565b600061375282613673565b91507fffffffffffffffffffffffffffffffffffffffffffffffffffffffffffffffff821415613785576137846137c1565b5b600182019050919050565b600061379b82613673565b91506137a683613673565b9250826137b6576137b56137f0565b5b828206905092915050565b7f4e487b7100000000000000000000000000000000000000000000000000000000600052601160045260246000fd5b7f4e487b7100000000000000000000000000000000000000000000000000000000600052601260045260246000fd5b7f4e487b7100000000000000000000000000000000000000000000000000000000600052602260045260246000fd5b7f4e487b7100000000000000000000000000000000000000000000000000000000600052604160045260246000fd5b6000601f19601f8301169050919050565b7f4552433732313a207472616e7366657220746f206e6f6e20455243373231526560008201527f63656976657220696d706c656d656e7465720000000000000000000000000000602082015250565b7f4f776e61626c653a206e6577206f776e657220697320746865207a65726f206160008201527f6464726573730000000000000000000000000000000000000000000000000000602082015250565b7f4552433732313a20746f6b656e20616c7265616479206d696e74656400000000600082015250565b7f6d6178204e465420706572206164647265737320657863656564656400000000600082015250565b7f4552433732313a207472616e7366657220746f20746865207a65726f2061646460008201527f7265737300000000000000000000000000000000000000000000000000000000602082015250565b7f4552433732313a20617070726f766520746f2063616c6c657200000000000000600082015250565b7f4552433732313a206f70657261746f7220717565727920666f72206e6f6e657860008201527f697374656e7420746f6b656e0000000000000000000000000000000000000000602082015250565b7f526f79616c74792076616c75652073686f756c6420626520706f736974697665600082015250565b7f4552433732313a20617070726f76652063616c6c6572206973206e6f74206f7760008201527f6e6572206e6f7220617070726f76656420666f7220616c6c0000000000000000602082015250565b7f4552433732313a2062616c616e636520717565727920666f7220746865207a6560008201527f726f206164647265737300000000000000000000000000000000000000000000602082015250565b7f4552433732313a206f776e657220717565727920666f72206e6f6e657869737460008201527f656e7420746f6b656e0000000000000000000000000000000000000000000000602082015250565b7f45524337323155524953746f726167653a2055524920736574206f66206e6f6e60008201527f6578697374656e7420746f6b656e000000000000000000000000000000000000602082015250565b7f6d6178537570706c79206f66203131313120536e6f77666c616b65732069732060008201527f6265696e67206578636565646564000000000000000000000000000000000000602082015250565b7f4552433732313a206d696e7420746f20746865207a65726f2061646472657373600082015250565b7f45524337323155524953746f726167653a2055524920717565727920666f722060008201527f6e6f6e6578697374656e7420746f6b656e000000000000000000000000000000602082015250565b7f4552433732313a20617070726f76656420717565727920666f72206e6f6e657860008201527f697374656e7420746f6b656e0000000000000000000000000000000000000000602082015250565b7f4f776e61626c653a2063616c6c6572206973206e6f7420746865206f776e6572600082015250565b7f4552433732313a207472616e73666572206f6620746f6b656e2074686174206960008201527f73206e6f74206f776e0000000000000000000000000000000000000000000000602082015250565b7f4552433732314d657461646174613a2055524920717565727920666f72206e6f60008201527f6e6578697374656e7420746f6b656e0000000000000000000000000000000000602082015250565b7f4552433732313a20617070726f76616c20746f2063757272656e74206f776e6560008201527f7200000000000000000000000000000000000000000000000000000000000000602082015250565b7f4552433732313a207472616e736665722063616c6c6572206973206e6f74206f60008201527f776e6572206e6f7220617070726f766564000000000000000000000000000000602082015250565b7f526f79616c747920746f74616c2076616c75652073686f756c64206265203c2060008201527f3130303030000000000000000000000000000000000000000000000000000000602082015250565b7f526563697069656e742073686f756c642062652070726573656e740000000000600082015250565b613ea6816135f7565b8114613eb157600080fd5b50565b613ebd8161361b565b8114613ec857600080fd5b50565b613ed481613627565b8114613edf57600080fd5b50565b613eeb81613673565b8114613ef657600080fd5b5056fea2646970667358221220e1bee31abd1482e597bf56f2697f8bf1ddcd629de375dae9d7591dc111ed558664736f6c63430008040033697066733a2f2f516d53395863524d4d657748506b77714b427a71686e5a4b545452364e43715a396a4c6335746874586f683143312f",
  "linkReferences": {},
  "deployedLinkReferences": {}
}