{
  "_format": "hh-sol-artifact-1",
  "contractName": "NFTWorking",
  "sourceName": "contracts/NFTWorking.sol",
  "abi": [
    {
      "inputs": [],
      "stateMutability": "nonpayable",
      "type": "constructor"
    },
    {
      "anonymous": false,
      "inputs": [
        {
          "indexed": true,
          "internalType": "address",
          "name": "owner",
          "type": "address"
        },
        {
          "indexed": true,
          "internalType": "address",
          "name": "approved",
          "type": "address"
        },
        {
          "indexed": true,
          "internalType": "uint256",
          "name": "tokenId",
          "type": "uint256"
        }
      ],
      "name": "Approval",
      "type": "event"
    },
    {
      "anonymous": false,
      "inputs": [
        {
          "indexed": true,
          "internalType": "address",
          "name": "owner",
          "type": "address"
        },
        {
          "indexed": true,
          "internalType": "address",
          "name": "operator",
          "type": "address"
        },
        {
          "indexed": false,
          "internalType": "bool",
          "name": "approved",
          "type": "bool"
        }
      ],
      "name": "ApprovalForAll",
      "type": "event"
    },
    {
      "anonymous": false,
      "inputs": [
        {
          "indexed": true,
          "internalType": "address",
          "name": "previousOwner",
          "type": "address"
        },
        {
          "indexed": true,
          "internalType": "address",
          "name": "newOwner",
          "type": "address"
        }
      ],
      "name": "OwnershipTransferred",
      "type": "event"
    },
    {
      "anonymous": false,
      "inputs": [
        {
          "indexed": false,
          "internalType": "uint256",
          "name": "tokenId",
          "type": "uint256"
        },
        {
          "components": [
            {
              "internalType": "address payable",
              "name": "account",
              "type": "address"
            },
            {
              "internalType": "uint96",
              "name": "value",
              "type": "uint96"
            }
          ],
          "indexed": false,
          "internalType": "struct LibPart.Part[]",
          "name": "royalties",
          "type": "tuple[]"
        }
      ],
      "name": "RoyaltiesSet",
      "type": "event"
    },
    {
      "anonymous": false,
      "inputs": [
        {
          "indexed": true,
          "internalType": "address",
          "name": "from",
          "type": "address"
        },
        {
          "indexed": true,
          "internalType": "address",
          "name": "to",
          "type": "address"
        },
        {
          "indexed": true,
          "internalType": "uint256",
          "name": "tokenId",
          "type": "uint256"
        }
      ],
      "name": "Transfer",
      "type": "event"
    },
    {
      "inputs": [
        {
          "internalType": "address",
          "name": "",
          "type": "address"
        }
      ],
      "name": "addressMintedBalance",
      "outputs": [
        {
          "internalType": "uint256",
          "name": "",
          "type": "uint256"
        }
      ],
      "stateMutability": "view",
      "type": "function"
    },
    {
      "inputs": [
        {
          "internalType": "address",
          "name": "to",
          "type": "address"
        },
        {
          "internalType": "uint256",
          "name": "tokenId",
          "type": "uint256"
        }
      ],
      "name": "approve",
      "outputs": [],
      "stateMutability": "nonpayable",
      "type": "function"
    },
    {
      "inputs": [],
      "name": "artist",
      "outputs": [
        {
          "internalType": "address",
          "name": "",
          "type": "address"
        }
      ],
      "stateMutability": "view",
      "type": "function"
    },
    {
      "inputs": [
        {
          "internalType": "address",
          "name": "owner",
          "type": "address"
        }
      ],
      "name": "balanceOf",
      "outputs": [
        {
          "internalType": "uint256",
          "name": "",
          "type": "uint256"
        }
      ],
      "stateMutability": "view",
      "type": "function"
    },
    {
      "inputs": [],
      "name": "createToken",
      "outputs": [
        {
          "internalType": "uint256",
          "name": "",
          "type": "uint256"
        }
      ],
      "stateMutability": "nonpayable",
      "type": "function"
    },
    {
      "inputs": [
        {
          "internalType": "uint256",
          "name": "tokenId",
          "type": "uint256"
        }
      ],
      "name": "getApproved",
      "outputs": [
        {
          "internalType": "address",
          "name": "",
          "type": "address"
        }
      ],
      "stateMutability": "view",
      "type": "function"
    },
    {
      "inputs": [
        {
          "internalType": "uint256",
          "name": "id",
          "type": "uint256"
        }
      ],
      "name": "getRaribleV2Royalties",
      "outputs": [
        {
          "components": [
            {
              "internalType": "address payable",
              "name": "account",
              "type": "address"
            },
            {
              "internalType": "uint96",
              "name": "value",
              "type": "uint96"
            }
          ],
          "internalType": "struct LibPart.Part[]",
          "name": "",
          "type": "tuple[]"
        }
      ],
      "stateMutability": "view",
      "type": "function"
    },
    {
      "inputs": [
        {
          "internalType": "address",
          "name": "owner",
          "type": "address"
        },
        {
          "internalType": "address",
          "name": "operator",
          "type": "address"
        }
      ],
      "name": "isApprovedForAll",
      "outputs": [
        {
          "internalType": "bool",
          "name": "",
          "type": "bool"
        }
      ],
      "stateMutability": "view",
      "type": "function"
    },
    {
      "inputs": [],
      "name": "maxMintAmount",
      "outputs": [
        {
          "internalType": "uint256",
          "name": "",
          "type": "uint256"
        }
      ],
      "stateMutability": "view",
      "type": "function"
    },
    {
      "inputs": [],
      "name": "maxSupply",
      "outputs": [
        {
          "internalType": "uint256",
          "name": "",
          "type": "uint256"
        }
      ],
      "stateMutability": "view",
      "type": "function"
    },
    {
      "inputs": [],
      "name": "mintCount",
      "outputs": [
        {
          "internalType": "uint256",
          "name": "",
          "type": "uint256"
        }
      ],
      "stateMutability": "view",
      "type": "function"
    },
    {
      "inputs": [],
      "name": "name",
      "outputs": [
        {
          "internalType": "string",
          "name": "",
          "type": "string"
        }
      ],
      "stateMutability": "view",
      "type": "function"
    },
    {
      "inputs": [],
      "name": "nftPerAddressLimit",
      "outputs": [
        {
          "internalType": "uint256",
          "name": "",
          "type": "uint256"
        }
      ],
      "stateMutability": "view",
      "type": "function"
    },
    {
      "inputs": [],
      "name": "owner",
      "outputs": [
        {
          "internalType": "address",
          "name": "",
          "type": "address"
        }
      ],
      "stateMutability": "view",
      "type": "function"
    },
    {
      "inputs": [
        {
          "internalType": "uint256",
          "name": "tokenId",
          "type": "uint256"
        }
      ],
      "name": "ownerOf",
      "outputs": [
        {
          "internalType": "address",
          "name": "",
          "type": "address"
        }
      ],
      "stateMutability": "view",
      "type": "function"
    },
    {
      "inputs": [],
      "name": "renounceOwnership",
      "outputs": [],
      "stateMutability": "nonpayable",
      "type": "function"
    },
    {
      "inputs": [
        {
          "internalType": "address",
          "name": "from",
          "type": "address"
        },
        {
          "internalType": "address",
          "name": "to",
          "type": "address"
        },
        {
          "internalType": "uint256",
          "name": "tokenId",
          "type": "uint256"
        }
      ],
      "name": "safeTransferFrom",
      "outputs": [],
      "stateMutability": "nonpayable",
      "type": "function"
    },
    {
      "inputs": [
        {
          "internalType": "address",
          "name": "from",
          "type": "address"
        },
        {
          "internalType": "address",
          "name": "to",
          "type": "address"
        },
        {
          "internalType": "uint256",
          "name": "tokenId",
          "type": "uint256"
        },
        {
          "internalType": "bytes",
          "name": "_data",
          "type": "bytes"
        }
      ],
      "name": "safeTransferFrom",
      "outputs": [],
      "stateMutability": "nonpayable",
      "type": "function"
    },
    {
      "inputs": [
        {
          "internalType": "address",
          "name": "operator",
          "type": "address"
        },
        {
          "internalType": "bool",
          "name": "approved",
          "type": "bool"
        }
      ],
      "name": "setApprovalForAll",
      "outputs": [],
      "stateMutability": "nonpayable",
      "type": "function"
    },
    {
      "inputs": [
        {
          "internalType": "bytes4",
          "name": "interfaceId",
          "type": "bytes4"
        }
      ],
      "name": "supportsInterface",
      "outputs": [
        {
          "internalType": "bool",
          "name": "",
          "type": "bool"
        }
      ],
      "stateMutability": "view",
      "type": "function"
    },
    {
      "inputs": [],
      "name": "symbol",
      "outputs": [
        {
          "internalType": "string",
          "name": "",
          "type": "string"
        }
      ],
      "stateMutability": "view",
      "type": "function"
    },
    {
      "inputs": [
        {
          "internalType": "uint256",
          "name": "tokenId",
          "type": "uint256"
        }
      ],
      "name": "tokenURI",
      "outputs": [
        {
          "internalType": "string",
          "name": "",
          "type": "string"
        }
      ],
      "stateMutability": "view",
      "type": "function"
    },
    {
      "inputs": [
        {
          "internalType": "address",
          "name": "from",
          "type": "address"
        },
        {
          "internalType": "address",
          "name": "to",
          "type": "address"
        },
        {
          "internalType": "uint256",
          "name": "tokenId",
          "type": "uint256"
        }
      ],
      "name": "transferFrom",
      "outputs": [],
      "stateMutability": "nonpayable",
      "type": "function"
    },
    {
      "inputs": [
        {
          "internalType": "address",
          "name": "newOwner",
          "type": "address"
        }
      ],
      "name": "transferOwnership",
      "outputs": [],
      "stateMutability": "nonpayable",
      "type": "function"
    }
  ],
  "bytecode": "0x60806040526040518060600160405280603681526020016200305060369139600990805190602001906200003592919062000138565b506040518060400160405280600581526020017f2e6a736f6e000000000000000000000000000000000000000000000000000000815250600a90805190602001906200008392919062000138565b503480156200009157600080fd5b506040518060400160405280600981526020017f4d657461766572736500000000000000000000000000000000000000000000008152506040518060400160405280600481526020017f4d4554540000000000000000000000000000000000000000000000000000000081525081600090805190602001906200011692919062000138565b5080600190805190602001906200012f92919062000138565b5050506200024d565b8280546200014690620001e8565b90600052602060002090601f0160209004810192826200016a5760008555620001b6565b82601f106200018557805160ff1916838001178555620001b6565b82800160010185558215620001b6579182015b82811115620001b557825182559160200191906001019062000198565b5b509050620001c59190620001c9565b5090565b5b80821115620001e4576000816000905550600101620001ca565b5090565b600060028204905060018216806200020157607f821691505b602082108114156200021857620002176200021e565b5b50919050565b7f4e487b7100000000000000000000000000000000000000000000000000000000600052602260045260246000fd5b612df3806200025d6000396000f3fe608060405234801561001057600080fd5b50600436106100ea5760003560e01c806370a082311161008c578063a22cb46511610066578063a22cb4651461025d578063b88d4fde14610279578063c87b56dd14610295578063e985e9c5146102c5576100ea565b806370a08231146101f157806395d89b41146102215780639cbf9e361461023f576100ea565b8063095ea7b3116100c8578063095ea7b31461016d57806323b872dd1461018957806342842e0e146101a55780636352211e146101c1576100ea565b806301ffc9a7146100ef57806306fdde031461011f578063081812fc1461013d575b600080fd5b61010960048036038101906101049190611d6e565b6102f5565b6040516101169190612224565b60405180910390f35b6101276103d7565b604051610134919061223f565b60405180910390f35b61015760048036038101906101529190611dc0565b610469565b60405161016491906121bd565b60405180910390f35b61018760048036038101906101829190611d32565b6104ee565b005b6101a3600480360381019061019e9190611c2c565b610606565b005b6101bf60048036038101906101ba9190611c2c565b610666565b005b6101db60048036038101906101d69190611dc0565b610686565b6040516101e891906121bd565b60405180910390f35b61020b60048036038101906102069190611bc7565b610738565b6040516102189190612461565b60405180910390f35b6102296107f0565b604051610236919061223f565b60405180910390f35b610247610882565b6040516102549190612461565b60405180910390f35b61027760048036038101906102729190611cf6565b6108c5565b005b610293600480360381019061028e9190611c7b565b610a46565b005b6102af60048036038101906102aa9190611dc0565b610aa8565b6040516102bc919061223f565b60405180910390f35b6102df60048036038101906102da9190611bf0565b610bfa565b6040516102ec9190612224565b60405180910390f35b60007f80ac58cd000000000000000000000000000000000000000000000000000000007bffffffffffffffffffffffffffffffffffffffffffffffffffffffff1916827bffffffffffffffffffffffffffffffffffffffffffffffffffffffff191614806103c057507f5b5e139f000000000000000000000000000000000000000000000000000000007bffffffffffffffffffffffffffffffffffffffffffffffffffffffff1916827bffffffffffffffffffffffffffffffffffffffffffffffffffffffff1916145b806103d057506103cf82610c8e565b5b9050919050565b6060600080546103e690612739565b80601f016020809104026020016040519081016040528092919081815260200182805461041290612739565b801561045f5780601f106104345761010080835404028352916020019161045f565b820191906000526020600020905b81548152906001019060200180831161044257829003601f168201915b5050505050905090565b600061047482610cf8565b6104b3576040517f08c379a00000000000000000000000000000000000000000000000000000000081526004016104aa906123c1565b60405180910390fd5b6004600083815260200190815260200160002060009054906101000a900473ffffffffffffffffffffffffffffffffffffffff169050919050565b60006104f982610686565b90508073ffffffffffffffffffffffffffffffffffffffff168373ffffffffffffffffffffffffffffffffffffffff16141561056a576040517f08c379a000000000000000000000000000000000000000000000000000000000815260040161056190612421565b60405180910390fd5b8073ffffffffffffffffffffffffffffffffffffffff16610589610d64565b73ffffffffffffffffffffffffffffffffffffffff1614806105b857506105b7816105b2610d64565b610bfa565b5b6105f7576040517f08c379a00000000000000000000000000000000000000000000000000000000081526004016105ee90612301565b60405180910390fd5b6106018383610d6c565b505050565b610617610611610d64565b82610e25565b610656576040517f08c379a000000000000000000000000000000000000000000000000000000000815260040161064d90612441565b60405180910390fd5b610661838383610f03565b505050565b61068183838360405180602001604052806000815250610a46565b505050565b6000806002600084815260200190815260200160002060009054906101000a900473ffffffffffffffffffffffffffffffffffffffff169050600073ffffffffffffffffffffffffffffffffffffffff168173ffffffffffffffffffffffffffffffffffffffff16141561072f576040517f08c379a000000000000000000000000000000000000000000000000000000000815260040161072690612341565b60405180910390fd5b80915050919050565b60008073ffffffffffffffffffffffffffffffffffffffff168273ffffffffffffffffffffffffffffffffffffffff1614156107a9576040517f08c379a00000000000000000000000000000000000000000000000000000000081526004016107a090612321565b60405180910390fd5b600360008373ffffffffffffffffffffffffffffffffffffffff1673ffffffffffffffffffffffffffffffffffffffff168152602001908152602001600020549050919050565b6060600180546107ff90612739565b80601f016020809104026020016040519081016040528092919081815260200182805461082b90612739565b80156108785780601f1061084d57610100808354040283529160200191610878565b820191906000526020600020905b81548152906001019060200180831161085b57829003601f168201915b5050505050905090565b600061088e600761115f565b600061089a6007611175565b905060006108a782611183565b90506108b333836111c6565b6108bd8282611394565b819250505090565b6108cd610d64565b73ffffffffffffffffffffffffffffffffffffffff168273ffffffffffffffffffffffffffffffffffffffff16141561093b576040517f08c379a0000000000000000000000000000000000000000000000000000000008152600401610932906122c1565b60405180910390fd5b8060056000610948610d64565b73ffffffffffffffffffffffffffffffffffffffff1673ffffffffffffffffffffffffffffffffffffffff16815260200190815260200160002060008473ffffffffffffffffffffffffffffffffffffffff1673ffffffffffffffffffffffffffffffffffffffff16815260200190815260200160002060006101000a81548160ff0219169083151502179055508173ffffffffffffffffffffffffffffffffffffffff166109f5610d64565b73ffffffffffffffffffffffffffffffffffffffff167f17307eab39ab6107e8899845ad3d59bd9653f200f220920489ca2b5937696c3183604051610a3a9190612224565b60405180910390a35050565b610a57610a51610d64565b83610e25565b610a96576040517f08c379a0000000000000000000000000000000000000000000000000000000008152600401610a8d90612441565b60405180910390fd5b610aa284848484611408565b50505050565b6060610ab382610cf8565b610af2576040517f08c379a0000000000000000000000000000000000000000000000000000000008152600401610ae9906123a1565b60405180910390fd5b6000600660008481526020019081526020016000208054610b1290612739565b80601f0160208091040260200160405190810160405280929190818152602001828054610b3e90612739565b8015610b8b5780601f10610b6057610100808354040283529160200191610b8b565b820191906000526020600020905b815481529060010190602001808311610b6e57829003601f168201915b505050505090506000610b9c611464565b9050600081511415610bb2578192505050610bf5565b600082511115610be7578082604051602001610bcf929190612168565b60405160208183030381529060405292505050610bf5565b610bf08461147b565b925050505b919050565b6000600560008473ffffffffffffffffffffffffffffffffffffffff1673ffffffffffffffffffffffffffffffffffffffff16815260200190815260200160002060008373ffffffffffffffffffffffffffffffffffffffff1673ffffffffffffffffffffffffffffffffffffffff16815260200190815260200160002060009054906101000a900460ff16905092915050565b60007f01ffc9a7000000000000000000000000000000000000000000000000000000007bffffffffffffffffffffffffffffffffffffffffffffffffffffffff1916827bffffffffffffffffffffffffffffffffffffffffffffffffffffffff1916149050919050565b60008073ffffffffffffffffffffffffffffffffffffffff166002600084815260200190815260200160002060009054906101000a900473ffffffffffffffffffffffffffffffffffffffff1673ffffffffffffffffffffffffffffffffffffffff1614159050919050565b600033905090565b816004600083815260200190815260200160002060006101000a81548173ffffffffffffffffffffffffffffffffffffffff021916908373ffffffffffffffffffffffffffffffffffffffff160217905550808273ffffffffffffffffffffffffffffffffffffffff16610ddf83610686565b73ffffffffffffffffffffffffffffffffffffffff167f8c5be1e5ebec7d5bd14f71427d1e84f3dd0314c0f7b2291e5b200ac8c7c3b92560405160405180910390a45050565b6000610e3082610cf8565b610e6f576040517f08c379a0000000000000000000000000000000000000000000000000000000008152600401610e66906122e1565b60405180910390fd5b6000610e7a83610686565b90508073ffffffffffffffffffffffffffffffffffffffff168473ffffffffffffffffffffffffffffffffffffffff161480610ee957508373ffffffffffffffffffffffffffffffffffffffff16610ed184610469565b73ffffffffffffffffffffffffffffffffffffffff16145b80610efa5750610ef98185610bfa565b5b91505092915050565b8273ffffffffffffffffffffffffffffffffffffffff16610f2382610686565b73ffffffffffffffffffffffffffffffffffffffff1614610f79576040517f08c379a0000000000000000000000000000000000000000000000000000000008152600401610f70906123e1565b60405180910390fd5b600073ffffffffffffffffffffffffffffffffffffffff168273ffffffffffffffffffffffffffffffffffffffff161415610fe9576040517f08c379a0000000000000000000000000000000000000000000000000000000008152600401610fe0906122a1565b60405180910390fd5b610ff4838383611522565b610fff600082610d6c565b6001600360008573ffffffffffffffffffffffffffffffffffffffff1673ffffffffffffffffffffffffffffffffffffffff168152602001908152602001600020600082825461104f9190612642565b925050819055506001600360008473ffffffffffffffffffffffffffffffffffffffff1673ffffffffffffffffffffffffffffffffffffffff16815260200190815260200160002060008282546110a6919061252a565b92505081905550816002600083815260200190815260200160002060006101000a81548173ffffffffffffffffffffffffffffffffffffffff021916908373ffffffffffffffffffffffffffffffffffffffff160217905550808273ffffffffffffffffffffffffffffffffffffffff168473ffffffffffffffffffffffffffffffffffffffff167fddf252ad1be2c89b69c2b068fc378daa952ba7f163c4a11628f55a4df523b3ef60405160405180910390a4505050565b6001816000016000828254019250508190555050565b600081600001549050919050565b6060600061119083611527565b90506000600982600a6040516020016111ab9392919061218c565b60405160208183030381529060405290508092505050919050565b600073ffffffffffffffffffffffffffffffffffffffff168273ffffffffffffffffffffffffffffffffffffffff161415611236576040517f08c379a000000000000000000000000000000000000000000000000000000000815260040161122d90612381565b60405180910390fd5b61123f81610cf8565b1561127f576040517f08c379a000000000000000000000000000000000000000000000000000000000815260040161127690612281565b60405180910390fd5b61128b60008383611522565b6001600360008473ffffffffffffffffffffffffffffffffffffffff1673ffffffffffffffffffffffffffffffffffffffff16815260200190815260200160002060008282546112db919061252a565b92505081905550816002600083815260200190815260200160002060006101000a81548173ffffffffffffffffffffffffffffffffffffffff021916908373ffffffffffffffffffffffffffffffffffffffff160217905550808273ffffffffffffffffffffffffffffffffffffffff16600073ffffffffffffffffffffffffffffffffffffffff167fddf252ad1be2c89b69c2b068fc378daa952ba7f163c4a11628f55a4df523b3ef60405160405180910390a45050565b61139d82610cf8565b6113dc576040517f08c379a00000000000000000000000000000000000000000000000000000000081526004016113d390612361565b60405180910390fd5b80600660008481526020019081526020016000209080519060200190611403929190611a53565b505050565b611413848484610f03565b61141f848484846116fc565b61145e576040517f08c379a000000000000000000000000000000000000000000000000000000000815260040161145590612261565b60405180910390fd5b50505050565b606060405180602001604052806000815250905090565b606061148682610cf8565b6114c5576040517f08c379a00000000000000000000000000000000000000000000000000000000081526004016114bc90612401565b60405180910390fd5b60006114cf611464565b905060008151116114ef576040518060200160405280600081525061151a565b806114f984611893565b60405160200161150a929190612168565b6040516020818303038152906040525b915050919050565b505050565b6060600082141561156f576040518060400160405280600181526020017f300000000000000000000000000000000000000000000000000000000000000081525090506116f7565b600082905060005b600082146115a157808061158a9061279c565b915050600a8261159a91906125b7565b9150611577565b60008167ffffffffffffffff8111156115e3577f4e487b7100000000000000000000000000000000000000000000000000000000600052604160045260246000fd5b6040519080825280601f01601f1916602001820160405280156116155781602001600182028036833780820191505090505b50905060008290505b600086146116ef576001816116339190612642565b90506000600a808861164591906125b7565b61164f91906125e8565b8761165a9190612642565b60306116669190612580565b905060008160f81b9050808484815181106116aa577f4e487b7100000000000000000000000000000000000000000000000000000000600052603260045260246000fd5b60200101907effffffffffffffffffffffffffffffffffffffffffffffffffffffffffffff1916908160001a905350600a886116e691906125b7565b9750505061161e565b819450505050505b919050565b600061171d8473ffffffffffffffffffffffffffffffffffffffff16611a40565b15611886578373ffffffffffffffffffffffffffffffffffffffff1663150b7a02611746610d64565b8786866040518563ffffffff1660e01b815260040161176894939291906121d8565b602060405180830381600087803b15801561178257600080fd5b505af19250505080156117b357506040513d601f19601f820116820180604052508101906117b09190611d97565b60015b611836573d80600081146117e3576040519150601f19603f3d011682016040523d82523d6000602084013e6117e8565b606091505b5060008151141561182e576040517f08c379a000000000000000000000000000000000000000000000000000000000815260040161182590612261565b60405180910390fd5b805181602001fd5b63150b7a0260e01b7bffffffffffffffffffffffffffffffffffffffffffffffffffffffff1916817bffffffffffffffffffffffffffffffffffffffffffffffffffffffff19161491505061188b565b600190505b949350505050565b606060008214156118db576040518060400160405280600181526020017f30000000000000000000000000000000000000000000000000000000000000008152509050611a3b565b600082905060005b6000821461190d5780806118f69061279c565b915050600a8261190691906125b7565b91506118e3565b60008167ffffffffffffffff81111561194f577f4e487b7100000000000000000000000000000000000000000000000000000000600052604160045260246000fd5b6040519080825280601f01601f1916602001820160405280156119815781602001600182028036833780820191505090505b5090505b60008514611a345760018261199a9190612642565b9150600a856119a991906127e5565b60306119b5919061252a565b60f81b8183815181106119f1577f4e487b7100000000000000000000000000000000000000000000000000000000600052603260045260246000fd5b60200101907effffffffffffffffffffffffffffffffffffffffffffffffffffffffffffff1916908160001a905350600a85611a2d91906125b7565b9450611985565b8093505050505b919050565b600080823b905060008111915050919050565b828054611a5f90612739565b90600052602060002090601f016020900481019282611a815760008555611ac8565b82601f10611a9a57805160ff1916838001178555611ac8565b82800160010185558215611ac8579182015b82811115611ac7578251825591602001919060010190611aac565b5b509050611ad59190611ad9565b5090565b5b80821115611af2576000816000905550600101611ada565b5090565b6000611b09611b04846124a1565b61247c565b905082815260208101848484011115611b2157600080fd5b611b2c8482856126f7565b509392505050565b600081359050611b4381612d61565b92915050565b600081359050611b5881612d78565b92915050565b600081359050611b6d81612d8f565b92915050565b600081519050611b8281612d8f565b92915050565b600082601f830112611b9957600080fd5b8135611ba9848260208601611af6565b91505092915050565b600081359050611bc181612da6565b92915050565b600060208284031215611bd957600080fd5b6000611be784828501611b34565b91505092915050565b60008060408385031215611c0357600080fd5b6000611c1185828601611b34565b9250506020611c2285828601611b34565b9150509250929050565b600080600060608486031215611c4157600080fd5b6000611c4f86828701611b34565b9350506020611c6086828701611b34565b9250506040611c7186828701611bb2565b9150509250925092565b60008060008060808587031215611c9157600080fd5b6000611c9f87828801611b34565b9450506020611cb087828801611b34565b9350506040611cc187828801611bb2565b925050606085013567ffffffffffffffff811115611cde57600080fd5b611cea87828801611b88565b91505092959194509250565b60008060408385031215611d0957600080fd5b6000611d1785828601611b34565b9250506020611d2885828601611b49565b9150509250929050565b60008060408385031215611d4557600080fd5b6000611d5385828601611b34565b9250506020611d6485828601611bb2565b9150509250929050565b600060208284031215611d8057600080fd5b6000611d8e84828501611b5e565b91505092915050565b600060208284031215611da957600080fd5b6000611db784828501611b73565b91505092915050565b600060208284031215611dd257600080fd5b6000611de084828501611bb2565b91505092915050565b611df281612676565b82525050565b611e0181612688565b82525050565b6000611e12826124e7565b611e1c81856124fd565b9350611e2c818560208601612706565b611e35816128d2565b840191505092915050565b6000611e4b826124f2565b611e55818561250e565b9350611e65818560208601612706565b611e6e816128d2565b840191505092915050565b6000611e84826124f2565b611e8e818561251f565b9350611e9e818560208601612706565b80840191505092915050565b60008154611eb781612739565b611ec1818661251f565b94506001821660008114611edc5760018114611eed57611f20565b60ff19831686528186019350611f20565b611ef6856124d2565b60005b83811015611f1857815481890152600182019150602081019050611ef9565b838801955050505b50505092915050565b6000611f3660328361250e565b9150611f41826128e3565b604082019050919050565b6000611f59601c8361250e565b9150611f6482612932565b602082019050919050565b6000611f7c60248361250e565b9150611f878261295b565b604082019050919050565b6000611f9f60198361250e565b9150611faa826129aa565b602082019050919050565b6000611fc2602c8361250e565b9150611fcd826129d3565b604082019050919050565b6000611fe560388361250e565b9150611ff082612a22565b604082019050919050565b6000612008602a8361250e565b915061201382612a71565b604082019050919050565b600061202b60298361250e565b915061203682612ac0565b604082019050919050565b600061204e602e8361250e565b915061205982612b0f565b604082019050919050565b600061207160208361250e565b915061207c82612b5e565b602082019050919050565b600061209460318361250e565b915061209f82612b87565b604082019050919050565b60006120b7602c8361250e565b91506120c282612bd6565b604082019050919050565b60006120da60298361250e565b91506120e582612c25565b604082019050919050565b60006120fd602f8361250e565b915061210882612c74565b604082019050919050565b600061212060218361250e565b915061212b82612cc3565b604082019050919050565b600061214360318361250e565b915061214e82612d12565b604082019050919050565b612162816126e0565b82525050565b60006121748285611e79565b91506121808284611e79565b91508190509392505050565b60006121988286611eaa565b91506121a48285611e79565b91506121b08284611eaa565b9150819050949350505050565b60006020820190506121d26000830184611de9565b92915050565b60006080820190506121ed6000830187611de9565b6121fa6020830186611de9565b6122076040830185612159565b81810360608301526122198184611e07565b905095945050505050565b60006020820190506122396000830184611df8565b92915050565b600060208201905081810360008301526122598184611e40565b905092915050565b6000602082019050818103600083015261227a81611f29565b9050919050565b6000602082019050818103600083015261229a81611f4c565b9050919050565b600060208201905081810360008301526122ba81611f6f565b9050919050565b600060208201905081810360008301526122da81611f92565b9050919050565b600060208201905081810360008301526122fa81611fb5565b9050919050565b6000602082019050818103600083015261231a81611fd8565b9050919050565b6000602082019050818103600083015261233a81611ffb565b9050919050565b6000602082019050818103600083015261235a8161201e565b9050919050565b6000602082019050818103600083015261237a81612041565b9050919050565b6000602082019050818103600083015261239a81612064565b9050919050565b600060208201905081810360008301526123ba81612087565b9050919050565b600060208201905081810360008301526123da816120aa565b9050919050565b600060208201905081810360008301526123fa816120cd565b9050919050565b6000602082019050818103600083015261241a816120f0565b9050919050565b6000602082019050818103600083015261243a81612113565b9050919050565b6000602082019050818103600083015261245a81612136565b9050919050565b60006020820190506124766000830184612159565b92915050565b6000612486612497565b9050612492828261276b565b919050565b6000604051905090565b600067ffffffffffffffff8211156124bc576124bb6128a3565b5b6124c5826128d2565b9050602081019050919050565b60008190508160005260206000209050919050565b600081519050919050565b600081519050919050565b600082825260208201905092915050565b600082825260208201905092915050565b600081905092915050565b6000612535826126e0565b9150612540836126e0565b9250827fffffffffffffffffffffffffffffffffffffffffffffffffffffffffffffffff0382111561257557612574612816565b5b828201905092915050565b600061258b826126ea565b9150612596836126ea565b92508260ff038211156125ac576125ab612816565b5b828201905092915050565b60006125c2826126e0565b91506125cd836126e0565b9250826125dd576125dc612845565b5b828204905092915050565b60006125f3826126e0565b91506125fe836126e0565b9250817fffffffffffffffffffffffffffffffffffffffffffffffffffffffffffffffff048311821515161561263757612636612816565b5b828202905092915050565b600061264d826126e0565b9150612658836126e0565b92508282101561266b5761266a612816565b5b828203905092915050565b6000612681826126c0565b9050919050565b60008115159050919050565b60007fffffffff0000000000000000000000000000000000000000000000000000000082169050919050565b600073ffffffffffffffffffffffffffffffffffffffff82169050919050565b6000819050919050565b600060ff82169050919050565b82818337600083830152505050565b60005b83811015612724578082015181840152602081019050612709565b83811115612733576000848401525b50505050565b6000600282049050600182168061275157607f821691505b6020821081141561276557612764612874565b5b50919050565b612774826128d2565b810181811067ffffffffffffffff82111715612793576127926128a3565b5b80604052505050565b60006127a7826126e0565b91507fffffffffffffffffffffffffffffffffffffffffffffffffffffffffffffffff8214156127da576127d9612816565b5b600182019050919050565b60006127f0826126e0565b91506127fb836126e0565b92508261280b5761280a612845565b5b828206905092915050565b7f4e487b7100000000000000000000000000000000000000000000000000000000600052601160045260246000fd5b7f4e487b7100000000000000000000000000000000000000000000000000000000600052601260045260246000fd5b7f4e487b7100000000000000000000000000000000000000000000000000000000600052602260045260246000fd5b7f4e487b7100000000000000000000000000000000000000000000000000000000600052604160045260246000fd5b6000601f19601f8301169050919050565b7f4552433732313a207472616e7366657220746f206e6f6e20455243373231526560008201527f63656976657220696d706c656d656e7465720000000000000000000000000000602082015250565b7f4552433732313a20746f6b656e20616c7265616479206d696e74656400000000600082015250565b7f4552433732313a207472616e7366657220746f20746865207a65726f2061646460008201527f7265737300000000000000000000000000000000000000000000000000000000602082015250565b7f4552433732313a20617070726f766520746f2063616c6c657200000000000000600082015250565b7f4552433732313a206f70657261746f7220717565727920666f72206e6f6e657860008201527f697374656e7420746f6b656e0000000000000000000000000000000000000000602082015250565b7f4552433732313a20617070726f76652063616c6c6572206973206e6f74206f7760008201527f6e6572206e6f7220617070726f76656420666f7220616c6c0000000000000000602082015250565b7f4552433732313a2062616c616e636520717565727920666f7220746865207a6560008201527f726f206164647265737300000000000000000000000000000000000000000000602082015250565b7f4552433732313a206f776e657220717565727920666f72206e6f6e657869737460008201527f656e7420746f6b656e0000000000000000000000000000000000000000000000602082015250565b7f45524337323155524953746f726167653a2055524920736574206f66206e6f6e60008201527f6578697374656e7420746f6b656e000000000000000000000000000000000000602082015250565b7f4552433732313a206d696e7420746f20746865207a65726f2061646472657373600082015250565b7f45524337323155524953746f726167653a2055524920717565727920666f722060008201527f6e6f6e6578697374656e7420746f6b656e000000000000000000000000000000602082015250565b7f4552433732313a20617070726f76656420717565727920666f72206e6f6e657860008201527f697374656e7420746f6b656e0000000000000000000000000000000000000000602082015250565b7f4552433732313a207472616e73666572206f6620746f6b656e2074686174206960008201527f73206e6f74206f776e0000000000000000000000000000000000000000000000602082015250565b7f4552433732314d657461646174613a2055524920717565727920666f72206e6f60008201527f6e6578697374656e7420746f6b656e0000000000000000000000000000000000602082015250565b7f4552433732313a20617070726f76616c20746f2063757272656e74206f776e6560008201527f7200000000000000000000000000000000000000000000000000000000000000602082015250565b7f4552433732313a207472616e736665722063616c6c6572206973206e6f74206f60008201527f776e6572206e6f7220617070726f766564000000000000000000000000000000602082015250565b612d6a81612676565b8114612d7557600080fd5b50565b612d8181612688565b8114612d8c57600080fd5b50565b612d9881612694565b8114612da357600080fd5b50565b612daf816126e0565b8114612dba57600080fd5b5056fea264697066735822122038b5c4c3ff71817f1270b2509784ba2153e6b9cf1010d71fc13920c7b01687d364736f6c63430008040033697066733a2f2f516d6152676d7774704847417758394c7171434c61736868775548507a6a624e694531696550767758427a7150442f",
  "linkReferences": {},
  "deployedLinkReferences": {}
}